{
  "contractName": "CompanyManagement",
  "abi": [
    {
      "inputs": [],
      "stateMutability": "nonpayable",
      "type": "constructor"
    },
    {
      "inputs": [
        {
          "internalType": "uint256",
          "name": "",
          "type": "uint256"
        }
      ],
      "name": "idx",
      "outputs": [
        {
          "internalType": "uint256",
          "name": "",
          "type": "uint256"
        }
      ],
      "stateMutability": "view",
      "type": "function",
      "constant": true
    },
    {
      "inputs": [
        {
          "internalType": "enum CompanyManagement.status",
          "name": "_status",
          "type": "uint8"
        },
        {
          "internalType": "string",
          "name": "link",
          "type": "string"
        },
        {
          "internalType": "string",
          "name": "name",
          "type": "string"
        },
        {
          "internalType": "string",
          "name": "apiProduct",
          "type": "string"
        },
        {
          "internalType": "string",
          "name": "apiQuote",
          "type": "string"
        }
      ],
      "name": "setCompany",
      "outputs": [],
      "stateMutability": "nonpayable",
      "type": "function"
    },
    {
      "inputs": [],
      "name": "getIdxLength",
      "outputs": [
        {
          "internalType": "uint256",
          "name": "",
          "type": "uint256"
        }
      ],
      "stateMutability": "view",
      "type": "function",
      "constant": true
    },
    {
      "inputs": [
        {
          "internalType": "uint256",
          "name": "id",
          "type": "uint256"
        }
      ],
      "name": "getCompany",
      "outputs": [
        {
          "internalType": "string",
          "name": "",
          "type": "string"
        },
        {
          "internalType": "string",
          "name": "",
          "type": "string"
        },
        {
          "internalType": "enum CompanyManagement.status",
          "name": "",
          "type": "uint8"
        },
        {
          "internalType": "string",
          "name": "",
          "type": "string"
        },
        {
          "internalType": "string",
          "name": "",
          "type": "string"
        }
      ],
      "stateMutability": "view",
      "type": "function",
      "constant": true
    },
    {
      "inputs": [
        {
          "internalType": "enum CompanyManagement.status",
          "name": "_status",
          "type": "uint8"
        },
        {
          "internalType": "uint256",
          "name": "_id",
          "type": "uint256"
        }
      ],
      "name": "updateStatus",
      "outputs": [
        {
          "internalType": "string",
          "name": "",
          "type": "string"
        },
        {
          "internalType": "string",
          "name": "",
          "type": "string"
        },
        {
          "internalType": "enum CompanyManagement.status",
          "name": "",
          "type": "uint8"
        }
      ],
      "stateMutability": "nonpayable",
      "type": "function"
    },
    {
      "inputs": [
        {
          "internalType": "string",
          "name": "logoLink",
          "type": "string"
        },
        {
          "internalType": "uint256",
          "name": "_id",
          "type": "uint256"
        }
      ],
      "name": "updateLogo",
      "outputs": [
        {
          "internalType": "string",
          "name": "",
          "type": "string"
        },
        {
          "internalType": "string",
          "name": "",
          "type": "string"
        },
        {
          "internalType": "enum CompanyManagement.status",
          "name": "",
          "type": "uint8"
        }
      ],
      "stateMutability": "nonpayable",
      "type": "function"
    }
  ],
  "bytecode": "0x608060405234801561001057600080fd5b50336000806101000a81548173ffffffffffffffffffffffffffffffffffffffff021916908373ffffffffffffffffffffffffffffffffffffffff1602179055506111e1806100606000396000f3fe608060405234801561001057600080fd5b50600436106100625760003560e01c806357d139171461006757806387a0ca0c1461009b578063b7ff5dae146100cb578063c41d0498146100fd578063e46ee9cd1461012f578063ef72a71d1461014d575b600080fd5b610081600480360381019061007c9190610d4c565b610169565b604051610092959493929190610e34565b60405180910390f35b6100b560048036038101906100b09190610d4c565b610430565b6040516100c29190610ec3565b60405180910390f35b6100e560048036038101906100e09190610cbc565b610454565b6040516100f493929190610def565b60405180910390f35b61011760048036038101906101129190610cf8565b6106c7565b60405161012693929190610def565b60405180910390f35b610137610901565b6040516101449190610ec3565b60405180910390f35b61016760048036038101906101629190610be5565b61090e565b005b606080600060608060016000878152602001908152602001600020600101600160008881526020019081526020016000206000016001600089815260200190815260200160002060020160009054906101000a900460ff16600160008a8152602001908152602001600020600301600160008b81526020019081526020016000206004018480546101f990611017565b80601f016020809104026020016040519081016040528092919081815260200182805461022590611017565b80156102725780601f1061024757610100808354040283529160200191610272565b820191906000526020600020905b81548152906001019060200180831161025557829003601f168201915b5050505050945083805461028590611017565b80601f01602080910402602001604051908101604052809291908181526020018280546102b190611017565b80156102fe5780601f106102d3576101008083540402835291602001916102fe565b820191906000526020600020905b8154815290600101906020018083116102e157829003601f168201915b5050505050935081805461031190611017565b80601f016020809104026020016040519081016040528092919081815260200182805461033d90611017565b801561038a5780601f1061035f5761010080835404028352916020019161038a565b820191906000526020600020905b81548152906001019060200180831161036d57829003601f168201915b5050505050915080805461039d90611017565b80601f01602080910402602001604051908101604052809291908181526020018280546103c990611017565b80156104165780601f106103eb57610100808354040283529160200191610416565b820191906000526020600020905b8154815290600101906020018083116103f957829003601f168201915b505050505090509450945094509450945091939590929450565b6002818154811061044057600080fd5b906000526020600020016000915090505481565b60608060008060009054906101000a900473ffffffffffffffffffffffffffffffffffffffff1673ffffffffffffffffffffffffffffffffffffffff163373ffffffffffffffffffffffffffffffffffffffff16146104e8576040517f08c379a00000000000000000000000000000000000000000000000000000000081526004016104df90610ea3565b60405180910390fd5b6000600160008681526020019081526020016000209050858160020160006101000a81548160ff0219169083600481111561054c577f4e487b7100000000000000000000000000000000000000000000000000000000600052602160045260246000fd5b021790555060016000868152602001908152602001600020600101600160008781526020019081526020016000206000016001600088815260200190815260200160002060020160009054906101000a900460ff168280546105ad90611017565b80601f01602080910402602001604051908101604052809291908181526020018280546105d990611017565b80156106265780601f106105fb57610100808354040283529160200191610626565b820191906000526020600020905b81548152906001019060200180831161060957829003601f168201915b5050505050925081805461063990611017565b80601f016020809104026020016040519081016040528092919081815260200182805461066590611017565b80156106b25780601f10610687576101008083540402835291602001916106b2565b820191906000526020600020905b81548152906001019060200180831161069557829003601f168201915b50505050509150935093509350509250925092565b60608060008060009054906101000a900473ffffffffffffffffffffffffffffffffffffffff1673ffffffffffffffffffffffffffffffffffffffff163373ffffffffffffffffffffffffffffffffffffffff161461075b576040517f08c379a000000000000000000000000000000000000000000000000000000000815260040161075290610ea3565b60405180910390fd5b60006001600086815260200190815260200160002090508581600101908051906020019061078a929190610ab0565b5060016000868152602001908152602001600020600101600160008781526020019081526020016000206000016001600088815260200190815260200160002060020160009054906101000a900460ff168280546107e790611017565b80601f016020809104026020016040519081016040528092919081815260200182805461081390611017565b80156108605780601f1061083557610100808354040283529160200191610860565b820191906000526020600020905b81548152906001019060200180831161084357829003601f168201915b5050505050925081805461087390611017565b80601f016020809104026020016040519081016040528092919081815260200182805461089f90611017565b80156108ec5780601f106108c1576101008083540402835291602001916108ec565b820191906000526020600020905b8154815290600101906020018083116108cf57829003601f168201915b50505050509150935093509350509250925092565b6000600280549050905090565b60008054906101000a900473ffffffffffffffffffffffffffffffffffffffff1673ffffffffffffffffffffffffffffffffffffffff163373ffffffffffffffffffffffffffffffffffffffff161461099c576040517f08c379a000000000000000000000000000000000000000000000000000000000815260040161099390610ea3565b60405180910390fd5b60006001600060028054905081526020019081526020016000209050838160000190805190602001906109d0929190610ab0565b50848160010190805190602001906109e9929190610ab0565b50858160020160006101000a81548160ff02191690836004811115610a37577f4e487b7100000000000000000000000000000000000000000000000000000000600052602160045260246000fd5b021790555082816003019080519060200190610a54929190610ab0565b5081816004019080519060200190610a6d929190610ab0565b5060026001600280549050610a829190610f50565b9080600181540180825580915050600190039060005260206000200160009091909190915055505050505050565b828054610abc90611017565b90600052602060002090601f016020900481019282610ade5760008555610b25565b82601f10610af757805160ff1916838001178555610b25565b82800160010185558215610b25579182015b82811115610b24578251825591602001919060010190610b09565b5b509050610b329190610b36565b5090565b5b80821115610b4f576000816000905550600101610b37565b5090565b6000610b66610b6184610f03565b610ede565b905082815260208101848484011115610b7e57600080fd5b610b89848285610fd5565b509392505050565b600081359050610ba081611184565b92915050565b600082601f830112610bb757600080fd5b8135610bc7848260208601610b53565b91505092915050565b600081359050610bdf81611194565b92915050565b600080600080600060a08688031215610bfd57600080fd5b6000610c0b88828901610b91565b955050602086013567ffffffffffffffff811115610c2857600080fd5b610c3488828901610ba6565b945050604086013567ffffffffffffffff811115610c5157600080fd5b610c5d88828901610ba6565b935050606086013567ffffffffffffffff811115610c7a57600080fd5b610c8688828901610ba6565b925050608086013567ffffffffffffffff811115610ca357600080fd5b610caf88828901610ba6565b9150509295509295909350565b60008060408385031215610ccf57600080fd5b6000610cdd85828601610b91565b9250506020610cee85828601610bd0565b9150509250929050565b60008060408385031215610d0b57600080fd5b600083013567ffffffffffffffff811115610d2557600080fd5b610d3185828601610ba6565b9250506020610d4285828601610bd0565b9150509250929050565b600060208284031215610d5e57600080fd5b6000610d6c84828501610bd0565b91505092915050565b610d7e81610fc3565b82525050565b6000610d8f82610f34565b610d998185610f3f565b9350610da9818560208601610fe4565b610db281611136565b840191505092915050565b6000610dca601683610f3f565b9150610dd582611147565b602082019050919050565b610de981610fb9565b82525050565b60006060820190508181036000830152610e098186610d84565b90508181036020830152610e1d8185610d84565b9050610e2c6040830184610d75565b949350505050565b600060a0820190508181036000830152610e4e8188610d84565b90508181036020830152610e628187610d84565b9050610e716040830186610d75565b8181036060830152610e838185610d84565b90508181036080830152610e978184610d84565b90509695505050505050565b60006020820190508181036000830152610ebc81610dbd565b9050919050565b6000602082019050610ed86000830184610de0565b92915050565b6000610ee8610ef9565b9050610ef48282611049565b919050565b6000604051905090565b600067ffffffffffffffff821115610f1e57610f1d611107565b5b610f2782611136565b9050602081019050919050565b600081519050919050565b600082825260208201905092915050565b6000610f5b82610fb9565b9150610f6683610fb9565b9250827fffffffffffffffffffffffffffffffffffffffffffffffffffffffffffffffff03821115610f9b57610f9a61107a565b5b828201905092915050565b6000819050610fb482611170565b919050565b6000819050919050565b6000610fce82610fa6565b9050919050565b82818337600083830152505050565b60005b83811015611002578082015181840152602081019050610fe7565b83811115611011576000848401525b50505050565b6000600282049050600182168061102f57607f821691505b60208210811415611043576110426110d8565b5b50919050565b61105282611136565b810181811067ffffffffffffffff8211171561107157611070611107565b5b80604052505050565b7f4e487b7100000000000000000000000000000000000000000000000000000000600052601160045260246000fd5b7f4e487b7100000000000000000000000000000000000000000000000000000000600052602160045260246000fd5b7f4e487b7100000000000000000000000000000000000000000000000000000000600052602260045260246000fd5b7f4e487b7100000000000000000000000000000000000000000000000000000000600052604160045260246000fd5b6000601f19601f8301169050919050565b7f596f7520617265206e6f7420746865206f776e65722100000000000000000000600082015250565b60058110611181576111806110a9565b5b50565b6005811061119157600080fd5b50565b61119d81610fb9565b81146111a857600080fd5b5056fea2646970667358221220d11beb943c5eb996459572608b8d0bb893ac23e518316e2adf50e5ab1a5ad51964736f6c63430008040033",
  "immutableReferences": {},
  "source": "pragma solidity ^0.8.4;\r\n\r\ncontract CompanyManagement {\r\n    constructor() {\r\n        owner = payable(msg.sender);\r\n    }\r\n\r\n    address payable owner;\r\n\r\n    modifier onlyOwnerCanDoIt {\r\n        require(msg.sender == owner, \"You are not the owner!\");\r\n        _;\r\n    }\r\n\r\n    enum status {A, B, S, N, V}\r\n    //ACTIVE, BANNED, SUSPENDED, NOTACTIVE, VERYSOON\r\n    status choice;\r\n\r\n    struct Company {\r\n        string name;\r\n        string link;\r\n        status Status;\r\n        // mapping(uint256 => Product) products;\r\n        // uint256[] productIDX;\r\n        string apiProductListing;\r\n        string apiQuoteListing;\r\n    }\r\n\r\n    //Things to add\r\n    //4. Adding an array of struct in the Company Struct regarding the policies they offer.\r\n\r\n    // struct Product {\r\n    //     uint256 productID;\r\n    //     string productName;\r\n    //     productStatus Status;\r\n    //     // uint256 productPrice;\r\n    //     // string currency;\r\n    //     // uint256 productCoverageDates;\r\n    //     // uint256 productPremium;\r\n    // }\r\n    // enum productStatus {ACTIVE, NOTACTIVE}\r\n\r\n    mapping(uint256 => Company) companies;\r\n    uint256[] public idx;\r\n\r\n    function setCompany(\r\n        status _status,\r\n        string memory link,\r\n        string memory name,\r\n        string memory apiProduct,\r\n        string memory apiQuote\r\n    ) public onlyOwnerCanDoIt {\r\n        Company storage company = companies[idx.length];\r\n\r\n        company.name = name;\r\n        company.link = link;\r\n        company.Status = _status;\r\n        company.apiProductListing = apiProduct;\r\n        company.apiQuoteListing = apiQuote;\r\n\r\n        idx.push(idx.length + 1);\r\n    }\r\n\r\n    function getIdxLength() public view returns (uint256) {\r\n        return idx.length;\r\n    }\r\n\r\n    function getCompany(uint256 id)\r\n        public\r\n        view\r\n        returns (\r\n           \r\n            string memory,\r\n            string memory,\r\n            status,\r\n            string memory,\r\n            string memory\r\n        )\r\n    {\r\n        return (\r\n            companies[id].link,\r\n            companies[id].name,\r\n            companies[id].Status,\r\n            companies[id].apiProductListing,\r\n            companies[id].apiQuoteListing\r\n        );\r\n    }\r\n\r\n    // function getProduct(uint256 _id, uint256 _productID)\r\n    //     public\r\n    //     view\r\n    //     returns (string memory _productName, productStatus _status)\r\n    // {\r\n    //     return (\r\n    //         companies[_id].products[_productID].productName,\r\n    //         companies[_id].products[_productID].Status\r\n    //     );\r\n    // }\r\n\r\n    // function getProductListLength(uint256 _id)\r\n    //     public\r\n    //     view\r\n    //     returns (uint256 length)\r\n    // {\r\n    //     return (companies[_id].productIDX.length);\r\n    // }\r\n\r\n    // function updateProductStatus(\r\n    //     productStatus _status,\r\n    //     uint256 _companyId,\r\n    //     uint256 _productId\r\n    // )\r\n    //     public\r\n    //     returns (\r\n    //         uint256 _productID,\r\n    //         productStatus _newStatus,\r\n    //         string memory _productName\r\n    //     )\r\n    // {\r\n    //     Product storage product = companies[_companyId].products[_productId];\r\n\r\n    //     product.Status = _status;\r\n\r\n    //     return (product.productID, product.Status, product.productName);\r\n    // }\r\n\r\n    // function addProduct(\r\n    //     uint256 _id,\r\n    //     uint256 _productID,\r\n    //     productStatus _status,\r\n    //     string memory _productName\r\n    // ) public onlyOwnerCanDoIt {\r\n    //     Product storage product =\r\n    //         companies[_id].products[companies[_id].productIDX.length];\r\n\r\n    //     product.productID = _productID;\r\n    //     product.productName = _productName;\r\n    //     product.Status = _status;\r\n\r\n    //     companies[_id].productIDX.push(companies[_id].productIDX.length + 1);\r\n    // }\r\n    \r\n    \r\n    function updateStatus(status _status, uint256 _id)\r\n        public\r\n        onlyOwnerCanDoIt\r\n        returns (\r\n            string memory,\r\n            string memory,\r\n            status\r\n        )\r\n    {\r\n        Company storage company = companies[_id];\r\n        company.Status = _status;\r\n\r\n        return (\r\n            companies[_id].link,\r\n            companies[_id].name,\r\n            companies[_id].Status\r\n        );\r\n    }\r\n\r\n    function updateLogo(string memory logoLink, uint256 _id)\r\n        public\r\n        onlyOwnerCanDoIt\r\n        returns (\r\n            \r\n            string memory,\r\n            string memory,\r\n            status\r\n        )\r\n    {\r\n        Company storage company = companies[_id];\r\n        company.link = logoLink;\r\n\r\n        return (\r\n           \r\n            companies[_id].link,\r\n            companies[_id].name,\r\n            companies[_id].Status\r\n        );\r\n    }\r\n}\r\n",
  "sourcePath": "C:/Users/shelly/Desktop/Audace/PolkaCover/Contracts/Managing company list/eth/contracts/CompanyManagement.sol",
  "compiler": {
    "name": "solc",
    "version": "0.8.4+commit.c7e474f2.Emscripten.clang"
  },
  "schemaVersion": "3.4.1",
  "updatedAt": "2021-05-29T06:58:37.157Z",
  "networkType": "ethereum",
  "devdoc": {
    "kind": "dev",
    "methods": {},
    "version": 1
  },
  "userdoc": {
    "kind": "user",
    "methods": {},
    "version": 1
  }
}