{
  "contractName": "Protocols",
  "abi": [
    {
      "inputs": [],
      "stateMutability": "nonpayable",
      "type": "constructor"
    },
    {
      "inputs": [
        {
          "internalType": "uint256",
          "name": "",
          "type": "uint256"
        }
      ],
      "name": "protocolLength",
      "outputs": [
        {
          "internalType": "uint256",
          "name": "",
          "type": "uint256"
        }
      ],
      "stateMutability": "view",
      "type": "function",
      "constant": true
    },
    {
      "inputs": [
        {
          "internalType": "uint256",
          "name": "_id",
          "type": "uint256"
        },
        {
          "internalType": "string",
          "name": "_protocolName",
          "type": "string"
        }
      ],
      "name": "addProtocol",
      "outputs": [],
      "stateMutability": "nonpayable",
      "type": "function"
    },
    {
      "inputs": [],
      "name": "getProtocolLength",
      "outputs": [
        {
          "internalType": "uint256",
          "name": "",
          "type": "uint256"
        }
      ],
      "stateMutability": "view",
      "type": "function",
      "constant": true
    },
    {
      "inputs": [
        {
          "internalType": "uint256",
          "name": "_id",
          "type": "uint256"
        }
      ],
      "name": "getProtocol",
      "outputs": [
        {
          "internalType": "uint256",
          "name": "",
          "type": "uint256"
        },
        {
          "internalType": "string",
          "name": "",
          "type": "string"
        }
      ],
      "stateMutability": "view",
      "type": "function",
      "constant": true
    }
  ],
  "bytecode": "0x608060405234801561001057600080fd5b50336000806101000a81548173ffffffffffffffffffffffffffffffffffffffff021916908373ffffffffffffffffffffffffffffffffffffffff1602179055506107ec806100606000396000f3fe608060405234801561001057600080fd5b506004361061004c5760003560e01c806325566238146100515780633f7a701d1461006f578063783ec7f01461009f578063ca418c96146100d0575b600080fd5b6100596100ec565b6040516100669190610516565b60405180910390f35b6100896004803603810190610084919061040e565b6100f9565b6040516100969190610516565b60405180910390f35b6100b960048036038101906100b4919061040e565b61011d565b6040516100c7929190610531565b60405180910390f35b6100ea60048036038101906100e59190610437565b6101e3565b005b6000600280549050905090565b6002818154811061010957600080fd5b906000526020600020016000915090505481565b6000606060016000848152602001908152602001600020600001546001600085815260200190815260200160002060010180805461015a90610675565b80601f016020809104026020016040519081016040528092919081815260200182805461018690610675565b80156101d35780601f106101a8576101008083540402835291602001916101d3565b820191906000526020600020905b8154815290600101906020018083116101b657829003601f168201915b5050505050905091509150915091565b60008054906101000a900473ffffffffffffffffffffffffffffffffffffffff1673ffffffffffffffffffffffffffffffffffffffff163373ffffffffffffffffffffffffffffffffffffffff1614610271576040517f08c379a0000000000000000000000000000000000000000000000000000000008152600401610268906104f6565b60405180910390fd5b60006001600060028054905081526020019081526020016000209050828160000181905550818160010190805190602001906102ae9291906102ee565b50600260016002805490506102c391906105d3565b9080600181540180825580915050600190039060005260206000200160009091909190915055505050565b8280546102fa90610675565b90600052602060002090601f01602090048101928261031c5760008555610363565b82601f1061033557805160ff1916838001178555610363565b82800160010185558215610363579182015b82811115610362578251825591602001919060010190610347565b5b5090506103709190610374565b5090565b5b8082111561038d576000816000905550600101610375565b5090565b60006103a461039f84610586565b610561565b9050828152602081018484840111156103bc57600080fd5b6103c7848285610633565b509392505050565b600082601f8301126103e057600080fd5b81356103f0848260208601610391565b91505092915050565b6000813590506104088161079f565b92915050565b60006020828403121561042057600080fd5b600061042e848285016103f9565b91505092915050565b6000806040838503121561044a57600080fd5b6000610458858286016103f9565b925050602083013567ffffffffffffffff81111561047557600080fd5b610481858286016103cf565b9150509250929050565b6000610496826105b7565b6104a081856105c2565b93506104b0818560208601610642565b6104b981610765565b840191505092915050565b60006104d16016836105c2565b91506104dc82610776565b602082019050919050565b6104f081610629565b82525050565b6000602082019050818103600083015261050f816104c4565b9050919050565b600060208201905061052b60008301846104e7565b92915050565b600060408201905061054660008301856104e7565b8181036020830152610558818461048b565b90509392505050565b600061056b61057c565b905061057782826106a7565b919050565b6000604051905090565b600067ffffffffffffffff8211156105a1576105a0610736565b5b6105aa82610765565b9050602081019050919050565b600081519050919050565b600082825260208201905092915050565b60006105de82610629565b91506105e983610629565b9250827fffffffffffffffffffffffffffffffffffffffffffffffffffffffffffffffff0382111561061e5761061d6106d8565b5b828201905092915050565b6000819050919050565b82818337600083830152505050565b60005b83811015610660578082015181840152602081019050610645565b8381111561066f576000848401525b50505050565b6000600282049050600182168061068d57607f821691505b602082108114156106a1576106a0610707565b5b50919050565b6106b082610765565b810181811067ffffffffffffffff821117156106cf576106ce610736565b5b80604052505050565b7f4e487b7100000000000000000000000000000000000000000000000000000000600052601160045260246000fd5b7f4e487b7100000000000000000000000000000000000000000000000000000000600052602260045260246000fd5b7f4e487b7100000000000000000000000000000000000000000000000000000000600052604160045260246000fd5b6000601f19601f8301169050919050565b7f596f7520617265206e6f7420746865206f776e65722100000000000000000000600082015250565b6107a881610629565b81146107b357600080fd5b5056fea2646970667358221220bba9680c96dbcc2806c1349b9727b5926ff37a9b671f0274d4dda6790a5de0eb64736f6c63430008040033",
  "immutableReferences": {},
  "source": "// SPDX-License-Identifier: GPL-3.0\r\npragma solidity ^0.8.4;\r\n\r\ncontract Protocols {\r\n    constructor() {\r\n        owner = payable(msg.sender);\r\n    }\r\n\r\n    address payable owner;\r\n\r\n    modifier onlyOwnerCanDoIt {\r\n        require(msg.sender == owner, \"You are not the owner!\");\r\n        _;\r\n    }\r\n    \r\n    \r\n    \r\n    struct Protocol {\r\n        uint256 id;\r\n        string name;\r\n    }\r\n    \r\n    mapping(uint256 => Protocol) protocols;\r\n    uint256[] public protocolLength;\r\n    \r\n    function addProtocol(\r\n        uint256 _id\r\n        ,string memory _protocolName\r\n    ) public onlyOwnerCanDoIt {\r\n     Protocol storage protocol = protocols[protocolLength.length];\r\n     \r\n     protocol.id = _id;\r\n     protocol.name = _protocolName;\r\n     \r\n     protocolLength.push(protocolLength.length +1);\r\n     \r\n    }\r\n\r\n\r\n    function getProtocolLength() public view returns (uint256) {\r\n        return protocolLength.length;\r\n    }\r\n    \r\n    function getProtocol(uint256 _id) public view returns (uint256, string memory) {\r\n        \r\n        return (\r\n            protocols[_id].id,\r\n            protocols[_id].name\r\n            );\r\n        \r\n    }\r\n}",
  "sourcePath": "C:/Users/shelly/Desktop/Audace/PolkaCover/Contracts/Managing company list/eth/contracts/Protocols.sol",
  "compiler": {
    "name": "solc",
    "version": "0.8.4+commit.c7e474f2.Emscripten.clang"
  },
  "schemaVersion": "3.4.1",
  "updatedAt": "2021-05-29T06:58:38.676Z",
  "networkType": "ethereum",
  "devdoc": {
    "kind": "dev",
    "methods": {},
    "version": 1
  },
  "userdoc": {
    "kind": "user",
    "methods": {},
    "version": 1
  }
}